:03000000020AC130
:0C0AC100787FE4F6D8FD758136020A96B5
:100A7E003F065B4F666D7D077F6F777C395E790031
:080A8E00FEFDFBF7EFDFBF7F67
:050A4500900A8E93FFF2
:100A4A00C2B7E4FEEF30E704D2C58002C2C5D2C203
:0A0A5A00C2C2EF25E0FF0EBE08EA5D
:010A6400226F
:1008C800A907AA05E975F00A12000EFFE4FD12084F
:1008D800FFE975F00A12000EAFF07D011208FFEA79
:1008E80075F00A12000EFF7D031208FFEA75F00A80
:0708F80012000EAFF07D04B9
:1008FF00AC07ED120A45EC900A7E93FF120A4AD21A
:04090F00C4C2C42278
:100A22001208C8EB75F00A12000EFF7D061208FFCD
:100A3200EB75F00A12000EAFF07D071208FF7F0F70
:030A42000208FFA8
:1009F8001208C8EB75F06412000EFF7D061208FF9E
:100A0800EB75F00A12000EFB75F00A12000EAFF03B
:0A0A18007D071208FF7F0F0208FFA0
:040991008F2C8D2DED
:10099500E4753101F530F52FF52EAF2D152DEF60EE
:1009A5001BAB31AA30A92FA82EAF2CE4FCFDFE12FB
:1009B500019A8F318E308D2F8C2E80DEAF31AE3087
:0409C500AD2FAC2E78
:0109C900220B
:080ACD007F0B7EBEDEFEDFFCA4
:010AD50022FE
:080821008F358E348D338C32CB
:10082900E4F536F536E536120A45C374079536FD03
:100839007F0A120991A804A905AA06AB07AF35AE2C
:1008490034AD33AC32120225E47B0AFAF9F812020C
:1008590025AF03AD07ED900A7E93FF120A4AD2C471
:0E086900C2C4120ACD0536E536C3940840B766
:01087700225E
:0C0AA7007F037E487DA1DDFEDEFCDFFA4F
:010AB3002220
:100A9600120ADD120AA7120AA7120AA71209138060
:010AA600F25D
:020AD6008F2768
:040AD8007F19DFFEA5
:010ADC0022F7
:1004F400E4F52475A0FEAFA0F5258F265326F0F56C
:1005040025E52664F04525603C7F0A120AD6E526D7
:1005140064F04525602FAFA07525008F26E5257072
:1005240024E5262482601B24C0601224E060092490
:10053400F07012E4F524800D7524018008752402FE
:10054400800375240375A0FDAFA07525008F265385
:1005540026F0752500E52664F04525603C7F0A12E7
:100564000AD6E52664F04525602FAFA07525008FD7
:1005740026E5257024E5262483601B24C06012240C
:10058400E0600924F07012752404800D7524058040
:1005940008752406800375240775A0FBAFA0752594
:1005A400008F265326F0752500E52664F045256066
:1005B4003C7F0A120AD6E52664F04525602FAFA0D9
:1005C4007525008F26E5257024E5262485601B24E7
:1005D400C0601224E0600924F07012752408800DB4
:1005E400752409800875240A800375240B75A0F707
:1005F400AFA07525008F265326F0752500E52664E7
:10060400F04525603C7F0A120AD6E52664F04525AC
:10061400602FAFA07525008F26E5257024E52624DC
:1006240089601B24C0601224E0600924F0701275F4
:10063400240C800D75240D800875240E8003752408
:030644000FAF24D1
:010647002290
:100A6500438E805389F0E4F58A758C28C28DD28C2B
:090A7500D2A9D288D2A8D2AF2286
:10095400750802E4F509F510F511F50EF50FF50C1F
:10096400F50DF50AF50B751B01F522F523F520F5B8
:1009740021F51EF51FF51CF51D751201F519F51A63
:0D098400F517F518F515F516F513F5142205
:060ADD00120A6502095433
:100322008B288A29892A8D2BE52B70030204F3C3BB
:10033200648094E440030204F3E52B6480941C502F
:10034200030204F3D3E52B64809480500302043348
:10035200AF2BEF3395E0AB28AA29A92A9000068F8C
:10036200F0120101900006120091FFAEF07C037DB5
:10037200E8120030AB28AA29A92A900004EE8FF0D7
:10038200120101900004120091FFAEF07C007D3C4E
:10039200120030AB28AA29A92A900002EE8FF0128F
:1003A2000101900002120091FFAEF07C007D3C1230
:1003B2000030AB28AA29A92AEE8FF01200C9AB2877
:1003C200E52A2406F9E43529FA120066FFAEF07C2C
:1003D200037DE8120030EC8DF012014EAB28E52AC5
:1003E2002404F9E43529FA120066FFAEF07C007DA0
:1003F2003C120030EC8DF012014EAB28E52A2402AB
:10040200F9E43529FA120066FFAEF07C007D3C1259
:100412000030EC8DF012014EAB28AA29A92A120055
:1004220066FFAEF07C007D18120030EC8DF0020405
:10043200F0E52BF404F52BAB28E52A2406F9E43584
:1004420029FA120066FFAD2BED3395E0FCC3EF9D58
:10045200FFE5F09C8FF012014EAB28AA29A92A9041
:100462000006120091C3E5F064809480501590005C
:1004720006740375F0E712016D90000474FFF5F045
:10048200120101AB28AA29A92A900004120091C3E3
:10049200E5F064809480501490000274FFF5F0122D
:1004A2000101900004E475F03B12016DAB28AA290A
:1004B200A92A900002120091C3E5F0648094805052
:1004C2001774FFF5F01200C9AB28AA29A92A9000D7
:1004D20002E475F03B12016DAB28AA29A92A120089
:1004E20066C3E5F0648094805007E475F01712014A
:0204F2004E2298
:10070500E51270030207991460030207A31204F4AB
:10071500BF04220518E51870020517D3943CE517A8
:100725006480948040660516E51670020515E4F5AB
:1007350017F51880571204F4BF0521E51815187030
:10074500021517C3E517648094805040E516151609
:100755007002151575170075183B80301204F4BF2B
:10076500080A0516E5167024051580201204F4BF45
:10077500091AE516151670021515D3E5169400E548
:1007850015648094805005E4F515F5161204F4BF40
:10079500030F800A1204F4BF030775120122E4F562
:0207A50012221E
:1007A700E50970721204F4EF6404606D1204F4EF4B
:1007B700640560651204F4BF0809050DE50D7002B4
:1007C700050C221204F4BF091CE50D150D70021566
:1007D7000CD3E50D9400E50C64809480503B750CB8
:1007E70000750D3B221204F4BF0A09050BE50B70D7
:1007F70002050A221204F4BF0B1FE50B150B70024A
:10080700150AD3E50B9400E50A64809480500A75B5
:0A0817000A00750B1722E4F5092210
:0C0AB4007F2B7E067DCBDDFEDEFCDFFA32
:010AC0002213
:1009CA00E51B14600B0470221204F4BF031F801A83
:1009DA001204F4BF0317E4F51BF522F523F520F5FD
:0E09EA0021F51EF51FF51CF51D22751B0122BF
:10091300E50814601D14600F24027021C280D28187
:10092300D2821207058019D280C281D2821209CAEB
:10093300800ED280D281C2821207A780037508017C
:100943001204F4BF010A0508E508B40303E4F5083B
:010953002281
:03000B00020648A2
:10064800C0E0C0F0C083C082C0D075D000C000C078
:1006580001C002C003C004C005C006C007E51B7086
:100668000AFB7A00791C7D05120322E509700AFB52
:100678007A00790A7D05120322E512703DFB7A00A3
:1006880079137DFB120322E514641745137029E5DD
:1006980016643B45157021E518643B4517701975BC
:1006A8001201F508C287F513F514F515F516F517B7
:1006B800F518F519F51A8002D287E50814601A149E
:1006C800600C2402701CAF14AD16AB188011AF1F5C
:1006D800AD21AB231209F88009AF0BAD0DAB0F129A
:1006E8000A22D007D006D005D004D003D002D0010A
:0D06F800D000D0D0D082D083D0F0D0E0323E
:0300030002087878
:10087800C0E0C0D075D000C005C006C007E51B1495
:100888006018047030D3E5219403E52064809480D7
:100898004023751B01120AB4801B751B00752200CA
:1008A800752300752000752100751E00751F0075E1
:1008B8001C00751D00D007D006D005D0D0D0E0327E
:10000E00C2D530F707B2D563F0FF05F030E70CB27A
:10001E00D5F4048463F0FF05F080018430D502F43A
:02002E000422AA
:10003000C2D5EC30E709B2D5E4C39DFDE49CFCEEEB
:1000400030E715B2D5E4C39FFFE49EFE1202B7C3AA
:10005000E49DFDE49CFC80031202B730D507C3E4A5
:060060009FFFE49EFE225A
:10006600BB010A89828A83E0F5F0A3E02250068765
:10007600F009E71922BBFE07E3F5F009E319228927
:0B008600828A83E493F5F0740193225A
:10009100BB0110E58229F582E5833AF583E0F5F0AD
:1000A100A3E0225009E92582F886F008E622BBFE8A
:1000B1000AE92582F8E2F5F008E222E5832AF583D0
:0800C100E993F5F0A3E9932295
:1000C900BB010789828A8302030C500B09C5F027FB
:1000D900F7C5F01937F722BBFE0D09F8E325F0F350
:1000E900C5F019E338F322F889828A8374019325CC
:0800F900F0C5F0F8E493382291
:10010100BB010DC58229C582C5833AC58302030C93
:100111005011C58229F808E5F026F618F5F0E582B8
:1001210036F622BBFE11C58229F808E225F0F5F06A
:10013100F218E23582F222F8E58229F582E5832A76
:0D014100F58374019325F0F5F0E493382266
:10014E00BB010A89828A83F0E5F0A3F0225006F7FC
:0F015E0009A7F01922BBFE06F3E5F009F31922F9
:10016D00F8BB0111E58229F582E5833AF583E8F0C4
:10017D00E5F0A3F0225009E92582C8F608A6F02281
:0D018D00BBFE09E92582C8F2E5F008F22268
:10019A00E88FF0A4CC8BF0A42CFCE98EF0A42CFC04
:1001AA008AF0EDA42CFCEA8EF0A4CDA8F08BF0A482
:1001BA002DCC3825F0FDE98FF0A42CCD35F0FCEBE1
:1001CA008EF0A4FEA9F0EB8FF0A4CFC5F02ECD39A6
:0F01DA00FEE43CFCEAA42DCE35F0FDE43CFC2213
:1001E90075F008758200EF2FFFEE33FECD33CDCCCD
:1001F90033CCC58233C5829BED9AEC99E582984050
:100209000CF582EE9BFEED9AFDEC99FC0FD5F0D62C
:10021900E4CEFBE4CDFAE4CCF9A88222B800C1B956
:100229000059BA002DEC8BF084CFCECDFCE5F0CB94
:10023900F97818EF2FFFEE33FEED33FDEC33FCEBCD
:1002490033FB10D703994004EB99FB0FD8E5E4F988
:10025900FA227818EF2FFFEE33FEED33FDEC33FC75
:10026900C933C910D7059BE99A4007EC9BFCE99A69
:10027900F90FD8E0E4C9FAE4CCFB2275F010EF2FAE
:10028900FFEE33FEED33FDCC33CCC833C810D707AE
:100299009BEC9AE899400AED9BFDEC9AFCE899F8E9
:0E02A9000FD5F0DAE4CDFBE4CCFAE4C8F9227C
:1002B700BC000BBE0029EF8DF084FFADF022E4CC2B
:1002C700F875F008EF2FFFEE33FEEC33FCEE9DECF4
:1002D700984005FCEE9DFE0FD5F0E9E4CEFD22ED3A
:1002E700F8F5F0EE8420D21CFEADF075F008EF2F84
:1002F700FFED33FD4007985006D5F0F222C398FD75
:050307000FD5F0EA2211
:10030C00C5F0F8A3E028F0C5F0F8E582158270027C
:06031C001583E038F02219
:00000001FF
