:03000000020A6091
:0C0A6000787FE4F6D8FD758136020A426A
:100A15003F065B4F666D7D077F6F777C395E79009A
:080A2500FEFDFBF7EFDFBF7FD0
:0509F500900A2593FFAC
:1009FA00C2B7E4FEEF30E704D2C58002C2C5D2C254
:0A0A0A00C2C2EF25E0FF0EBE08EAAD
:010A140022BF
:10087800A907AA05E975F00A12000EFFE4FD12089F
:10088800AFE975F00A12000EAFF07D011208AFEA69
:1008980075F00A12000EFF7D031208AFEA75F00A20
:0708A80012000EAFF07D0409
:1008AF00AC07ED1209F5EC900A1593FF1209FAD275
:0408BF00C4C2C422C9
:1009D200120878EB75F00A12000EFF7D061208AFBE
:1009E200EB75F00A12000EAFF07D071208AF7F0F11
:0309F2000208AF49
:1009A800120878EB75F06412000EFF7D061208AF8E
:1009B800EB75F00A12000EFB75F00A12000EAFF08C
:0A09C8007D071208AF7F0F0208AF91
:040941008F2C8D2D3D
:10094500E4753101F530F52FF52EAF2D152DEF603E
:100955001BAB31AA30A92FA82EAF2CE4FCFDFE124B
:10096500019A8F318E308D2F8C2E80DEAF31AE30D7
:04097500AD2FAC2EC8
:01097900225B
:080A6C007F0B7EBEDEFEDFFC05
:010A7400225F
:080821008F358E348D338C32CB
:10082900E4F536F536E5361209F5C374079536FD54
:100839007F0A120941A804A905AA06AB07AF35AE7C
:1008490034AD33AC32120225E47B0AFAF9F812020C
:1008590025AF03AD07ED900A1593FF1209FAD2C42B
:0E086900C2C4120A6C0536E536C3940840B7C7
:01087700225E
:0C0A53007F037E487DA1DDFEDEFCDFFAA3
:010A5F002274
:100A4200120A75120A53120A53120A531208C38069
:010A5200F2B1
:020003008F2745
:040005007F19DFFE82
:0100090022D4
:1004F400E4F52475A0FEAFA0F5258F265326F0F56C
:1005040025E52664F04525603C7F0A120003E526B4
:1005140064F04525602FAFA07525008F26E5257072
:1005240024E5262482601B24C0601224E060092490
:10053400F07012E4F524800D7524018008752402FE
:10054400800375240375A0FDAFA07525008F265385
:1005540026F0752500E52664F04525603C7F0A12E7
:100564000003E52664F04525602FAFA07525008FB4
:1005740026E5257024E5262483601B24C06012240C
:10058400E0600924F07012752404800D7524058040
:1005940008752406800375240775A0FBAFA0752594
:1005A400008F265326F0752500E52664F045256066
:1005B4003C7F0A120003E52664F04525602FAFA0B6
:1005C4007525008F26E5257024E5262485601B24E7
:1005D400C0601224E0600924F07012752408800DB4
:1005E400752409800875240A800375240B75A0F707
:1005F400AFA07525008F265326F0752500E52664E7
:10060400F04525603C7F0A120003E52664F0452589
:10061400602FAFA07525008F26E5257024E52624DC
:1006240089601B24C0601224E0600924F0701275F4
:10063400240C800D75240D800875240E8003752408
:030644000FAF24D1
:010647002290
:100A2D00438E805389F0E4F58A758C28C28DD28C63
:050A3D00D2A9D2AF2296
:10090400750801E4F509F510F511F50EF50FF50C70
:10091400F50DF50AF50B751B01F522F523F520F508
:1009240021F51EF51FF51CF51D751201F519F51AB3
:0D093400F517F518F515F516F513F5142255
:060A7500120A2D02090423
:100322008B288A29892A8D2BE52B70030204F3C3BB
:10033200648094E440030204F3E52B6480941C502F
:10034200030204F3D3E52B64809480500302043348
:10035200AF2BEF3395E0AB28AA29A92A9000068F8C
:10036200F0120101900006120091FFAEF07C037DB5
:10037200E8120030AB28AA29A92A900004EE8FF0D7
:10038200120101900004120091FFAEF07C007D3C4E
:10039200120030AB28AA29A92A900002EE8FF0128F
:1003A2000101900002120091FFAEF07C007D3C1230
:1003B2000030AB28AA29A92AEE8FF01200C9AB2877
:1003C200E52A2406F9E43529FA120066FFAEF07C2C
:1003D200037DE8120030EC8DF012014EAB28E52AC5
:1003E2002404F9E43529FA120066FFAEF07C007DA0
:1003F2003C120030EC8DF012014EAB28E52A2402AB
:10040200F9E43529FA120066FFAEF07C007D3C1259
:100412000030EC8DF012014EAB28AA29A92A120055
:1004220066FFAEF07C007D18120030EC8DF0020405
:10043200F0E52BF404F52BAB28E52A2406F9E43584
:1004420029FA120066FFAD2BED3395E0FCC3EF9D58
:10045200FFE5F09C8FF012014EAB28AA29A92A9041
:100462000006120091C3E5F064809480501590005C
:1004720006740375F0E712016D90000474FFF5F045
:10048200120101AB28AA29A92A900004120091C3E3
:10049200E5F064809480501490000274FFF5F0122D
:1004A2000101900004E475F03B12016DAB28AA290A
:1004B200A92A900002120091C3E5F0648094805052
:1004C2001774FFF5F01200C9AB28AA29A92A9000D7
:1004D20002E475F03B12016DAB28AA29A92A120089
:1004E20066C3E5F0648094805007E475F01712014A
:0204F2004E2298
:10070500E51270030207991460030207A31204F4AB
:10071500BF04220518E51870020517D3943CE517A8
:100725006480948040660516E51670020515E4F5AB
:1007350017F51880571204F4BF0521E51815187030
:10074500021517C3E517648094805040E516151609
:100755007002151575170075183B80301204F4BF2B
:10076500080A0516E5167024051580201204F4BF45
:10077500091AE516151670021515D3E5169400E548
:1007850015648094805005E4F515F5161204F4BF40
:10079500030F800A1204F4BF030775120122E4F562
:0207A50012221E
:1007A700E50970721204F4EF6404606D1204F4EF4B
:1007B700640560651204F4BF0809050DE50D7002B4
:1007C700050C221204F4BF091CE50D150D70021566
:1007D7000CD3E50D9400E50C64809480503B750CB8
:1007E70000750D3B221204F4BF0A09050BE50B70D7
:1007F70002050A221204F4BF0B1FE50B150B70024A
:10080700150AD3E50B9400E50A64809480500A75B5
:0A0817000A00750B1722E4F5092210
:10097A00E51B14600B0470221204F4BF031F801AD3
:10098A001204F4BF0317E4F51BF522F523F520F54D
:0E099A0021F51EF51FF51CF51D22751B01220F
:1008C300E50814601D14600F24027021C280D281D8
:1008D300D2821207058019D280C281D28212097A8C
:1008E300800ED280D281C2821207A78003750801CD
:1008F3001204F4BF010A0508E508B40303E4F5088C
:0109030022D1
:03000B00020648A2
:10064800C0E0C0F0C083C082C0D075D000C000C078
:1006580001C002C003C004C005C006C007E51B7086
:100668000AFB7A00791C7D05120322E509700AFB52
:100678007A00790A7D05120322E512703DFB7A00A3
:1006880079137DFB120322E514641745137029E5DD
:1006980016643B45157021E518643B4517701975BC
:1006A8001201F508C287F513F514F515F516F517B7
:1006B800F518F519F51A8002D287E50814601A149E
:1006C800600C2402701CAF14AD16AB188011AF1F5C
:1006D800AD21AB231209A88009AF0BAD0DAB0F12EA
:1006E80009D2D007D006D005D004D003D002D0015B
:0D06F800D000D0D0D082D083D0F0D0E0323E
:10000E00C2D530F707B2D563F0FF05F030E70CB27A
:10001E00D5F4048463F0FF05F080018430D502F43A
:02002E000422AA
:10003000C2D5EC30E709B2D5E4C39DFDE49CFCEEEB
:1000400030E715B2D5E4C39FFFE49EFE1202B7C3AA
:10005000E49DFDE49CFC80031202B730D507C3E4A5
:060060009FFFE49EFE225A
:10006600BB010A89828A83E0F5F0A3E02250068765
:10007600F009E71922BBFE07E3F5F009E319228927
:0B008600828A83E493F5F0740193225A
:10009100BB0110E58229F582E5833AF583E0F5F0AD
:1000A100A3E0225009E92582F886F008E622BBFE8A
:1000B1000AE92582F8E2F5F008E222E5832AF583D0
:0800C100E993F5F0A3E9932295
:1000C900BB010789828A8302030C500B09C5F027FB
:1000D900F7C5F01937F722BBFE0D09F8E325F0F350
:1000E900C5F019E338F322F889828A8374019325CC
:0800F900F0C5F0F8E493382291
:10010100BB010DC58229C582C5833AC58302030C93
:100111005011C58229F808E5F026F618F5F0E582B8
:1001210036F622BBFE11C58229F808E225F0F5F06A
:10013100F218E23582F222F8E58229F582E5832A76
:0D014100F58374019325F0F5F0E493382266
:10014E00BB010A89828A83F0E5F0A3F0225006F7FC
:0F015E0009A7F01922BBFE06F3E5F009F31922F9
:10016D00F8BB0111E58229F582E5833AF583E8F0C4
:10017D00E5F0A3F0225009E92582C8F608A6F02281
:0D018D00BBFE09E92582C8F2E5F008F22268
:10019A00E88FF0A4CC8BF0A42CFCE98EF0A42CFC04
:1001AA008AF0EDA42CFCEA8EF0A4CDA8F08BF0A482
:1001BA002DCC3825F0FDE98FF0A42CCD35F0FCEBE1
:1001CA008EF0A4FEA9F0EB8FF0A4CFC5F02ECD39A6
:0F01DA00FEE43CFCEAA42DCE35F0FDE43CFC2213
:1001E90075F008758200EF2FFFEE33FECD33CDCCCD
:1001F90033CCC58233C5829BED9AEC99E582984050
:100209000CF582EE9BFEED9AFDEC99FC0FD5F0D62C
:10021900E4CEFBE4CDFAE4CCF9A88222B800C1B956
:100229000059BA002DEC8BF084CFCECDFCE5F0CB94
:10023900F97818EF2FFFEE33FEED33FDEC33FCEBCD
:1002490033FB10D703994004EB99FB0FD8E5E4F988
:10025900FA227818EF2FFFEE33FEED33FDEC33FC75
:10026900C933C910D7059BE99A4007EC9BFCE99A69
:10027900F90FD8E0E4C9FAE4CCFB2275F010EF2FAE
:10028900FFEE33FEED33FDCC33CCC833C810D707AE
:100299009BEC9AE899400AED9BFDEC9AFCE899F8E9
:0E02A9000FD5F0DAE4CDFBE4CCFAE4C8F9227C
:1002B700BC000BBE0029EF8DF084FFADF022E4CC2B
:1002C700F875F008EF2FFFEE33FEEC33FCEE9DECF4
:1002D700984005FCEE9DFE0FD5F0E9E4CEFD22ED3A
:1002E700F8F5F0EE8420D21CFEADF075F008EF2F84
:1002F700FFED33FD4007985006D5F0F222C398FD75
:050307000FD5F0EA2211
:10030C00C5F0F8A3E028F0C5F0F8E582158270027C
:06031C001583E038F02219
:00000001FF
