:03000000020D5698
:0C0D5600787FE4F6D8FD758123020D9D26
:0C0EB4003F065B4F666D7D077F6F80007E
:100E9B00020E00000210000002120000020A000005
:080EAB00020C00140214000007
:100A480020B42C30B52930B62630B723E515451427
:100A58007009050FE50F7045050E22E5156401457F
:100A6800146003020B6A050BE50B7002050A2230BD
:100A7800B42C20B52930B62630B723E515451470B7
:100A880009E50F150F7002150E22E51564014514CE
:100A98006003020B6AE50B150B7002150A2230B4CD
:100AA8002C30B52920B62630B723E5154514700932
:100AB8000511E5117002051022E515640145146061
:100AC80003020B6A050DE50D7002050C2230B429EE
:100AD80030B52630B62320B720E51545147009E552
:100AE8001115117002151022E51564014514707274
:100AF800E50D150D7002150C2220B43F20B53C30D1
:100B0800B63930B736E515451470090515E5157081
:100B180002051422E5156401451470090515E5154B
:100B28007002051422E515640245146008E5156491
:100B3800034514702DE4F514F5152230B42430B5AE
:100B48002120B61E20B71BE515640245147006F572
:100B58001475150322E515640345147005F514751D
:030B680015022251
:080E6D00F583E493F580C2A6B1
:100E7500E4FDFCD3ED9FEE6480F8EC64809850159A
:100E8500E4FBFA0BBB00010AEB646F4A70F50DBD7C
:050E950000010C80DEED
:010E9A002235
:100C7A00751E00751F0875200075210875220075FC
:0E0C8A0023087B087A007D087C007F087E002E
:100C98008C1A8D1B8A1C8B1DD2A77580FEC2A7D209
:100CA800A674B42FF582740E3EF583E493F580C2E2
:100CB800A67F017E00120E75D2A77580FDC2A7D24D
:100CC800A674B4251BF582740E351A120E6DD2A7C0
:100CD8007580FBC2A7D2A674B4251DF582740E35A3
:100CE8001C120E6DD2A77580F7C2A7D2A674B425C0
:100CF8001FF582740E351E120E6DD2A77580EFC2D5
:100D0800A7D2A674B42521F582740E3520120E6D73
:100D1800D2A77580DFC2A7D2A674B42523F5827442
:100D28000E3522120E6DAE22AF237C007D02120D0D
:100D3800E2ED4C7018D2A77580F5C2A7D2A6900E26
:0E0D4800BE93F580C2A67F017E00120E7522BA
:100B6B000513E51370020512C3943CE512648094DF
:100B7B0080400DE4F512F5130511E5117002051017
:100B8B00E511643C4510700CF510F511050FE50FE0
:100B9B007002050EE50F6418450E7004F50EF50F87
:100BAB00E513B4FF13E512B4FF0E75120075133B7A
:100BBB00E511151170021510E511B4FF13E510B412
:100BCB00FF0E75100075113BE50F150F7002150E1A
:100BDB00E50FB4FF0BE50EB4FF06750E00750F178E
:100BEB00E5154514600BE515640345146003020C11
:100BFB0079E4F516F517AE0EAF0F7C007D0A120DDA
:100C0B00E28E838F82AE10AF117C007D0A120DE253
:100C1B00AA06AB07AE12AF137C007D0A120DE28E53
:100C2B00208F21AE0EAF0F7C007D0A120DE2C004A7
:100C3B00C005AE10AF117C007D0A120DE28C1E8D2B
:100C4B001FAE12AF137C007D0A120DE28C228D2396
:100C5B00AF82AE83D005D004120C980517E5177040
:0E0C6B00020516D3944BE516648094804088F1
:010C79002258
:10080000E51545147003020A47E5156401451460B7
:10081000030208CDE50D643C450C700CF50CF50D9C
:10082000050BE50B7002050AE50B643C450A700CEC
:10083000F50AF50B0509E50970020508D3E50994E9
:1008400063E508648094804006750800750963E4D8
:10085000F516F517AE08AF097C007D0A120DE28E81
:10086000838F82AE0AAF0B7C007D0A120DE2AA06CE
:10087000AB07AE0CAF0D7C007D0A120DE28E208F0F
:1008800021AE08AF097C007D0A120DE2C004C0054C
:10089000AE0AAF0B7C007D0A120DE28C1E8D1FAEDE
:1008A0000CAF0D7C007D0A120DE28C228D23AF82ED
:1008B000AE83D005D004120C980517E51770020519
:1008C00016D3944BE51664809480408822E5156425
:1008D00002451460030209CBE50D150D7002150CDD
:1008E000E50DB4FF13E50CB4FF0E750C00750D3B60
:1008F000E50B150B7002150AE50BB4FF13E50AB4FE
:10090000FF0E750A00750B3BE50915097002150805
:10091000E4F516F517AE08AF097C007D0A120DE26A
:100920008E838F82AE0AAF0B7C007D0A120DE2AA85
:1009300006AB07AE0CAF0D7C007D0A120DE28E20D7
:100940008F21AE08AF097C007D0A120DE2C004C001
:1009500005AE0AAF0B7C007D0A120DE28C1E8D1FC6
:10096000AE0CAF0D7C007D0A120DE28C228D23AF00
:1009700082AE83D005D004120C980517E5177002DB
:100980000516D3944BE516648094804088E50B45AA
:100990000A6003020A47E50D450C6003020A47E5B9
:1009A0000945086003020A47F516F517120C7A0587
:1009B00017E51770020516D3944BE51664809480F2
:1009C00040EA050DE50D7002050C22E515640345AE
:1009D000147074E50D150D7002150CE50DB4FF13C0
:1009E000E50CB4FF0E750C00750D3BE50B150B7097
:1009F00002150AE50BB4FF13E50AB4FF0E750A00F1
:100A0000750B3BE509150970021508E50B450A70E1
:100A100036E50D450C7030E5094508702AF516F5E8
:100A200017120C7A0517E51770020516D3944BE5DB
:100A3000166480948040EA0513E5137002051205E0
:070A40000DE50D7002050C2D
:010A4700228C
:0B0EC000120A48120B6B12080080F5AC
:100D6200020EC0E493A3F8E493A34003F68001F2D9
:100D720008DFF48029E493A3F85407240CC8C33392
:100D8200C4540F4420C8834004F456800146F6DF61
:100D9200E4800B0102040810204080900E9BE47E48
:100DA200019360BCA3FF543F30E509541FFEE49356
:100DB200A360010ECF54C025E060A840B8E493A31D
:100DC200FAE493A3F8E493A3C8C582C8CAC583CA48
:100DD200F0A3C8C582C8CAC583CADFE9DEE780BE00
:010EB300003E
:100DE200C2D5EC30E709B2D5E4C39DFDE49CFCEE2C
:100DF20030E715B2D5E4C39FFFE49EFE120E18C37E
:100E0200E49DFDE49CFC8003120E1830D507C3E478
:060E12009FFFE49EFE229A
:100E1800BC000BBE0029EF8DF084FFADF022E4CCBE
:100E2800F875F008EF2FFFEE33FEEC33FCEE9DEC87
:100E3800984005FCEE9DFE0FD5F0E9E4CEFD22EDCD
:100E4800F8F5F0EE8420D21CFEADF075F008EF2F17
:100E5800FFED33FD4007985006D5F0F222C398FD08
:050E68000FD5F0EA22A5
:00000001FF
