:03000000020800F3
:0C080000787FE4F6D8FD75810C020847F3
:07091C0068656C6C6F2000A0
:04092300020B0000C3
:10090600D2AFD2AC758920758DFD758BFDD28EC2A6
:060916009FD29ED29C223C
:10088C00E4FFFE120906D3E50C9402E50B64809498
:10089C008040F3C2ACE4FEFF741C2FF58274093E59
:1008AC00F583E493F5993099FDC2990FBF00010EC1
:1008BC00EF64064E70E2E4FEFF74082FF8E6F5993B
:1008CC003099FDC2990FBF00010EEF64034E70E921
:0908DC00D2ACE4F50BF50C80AD83
:030023000208E5EB
:1008E500C0E0C0D075D000C000C2987408250CF8CF
:1008F500A699050CE50C7002050BD000D0D0D0E010
:0109050032BF
:10080C0002088CE493A3F8E493A34003F68001F26E
:10081C0008DFF48029E493A3F85407240CC8C333ED
:10082C00C4540F4420C8834004F456800146F6DFBC
:10083C00E4800B0102040810204080900923E47E20
:10084C00019360BCA3FF543F30E509541FFEE493B1
:10085C00A360010ECF54C025E060A840B8E493A378
:10086C00FAE493A3F8E493A3C8C582C8CAC583CAA3
:10087C00F0A3C8C582C8CAC583CADFE9DEE780BE5B
:0109270000CF
:00000001FF
